:100000000C9479010C949A010C949A010C949A0125
:100010000C949A010C949A010C949A010C949A01F4
:100020000C949A010C949A010C949A010C949A01E4
:100030000C949A010C949A010C949A010C949A01D4
:100040000C949A010C949A010C949A010C949A01C4
:100050000C949A010C949A010C949A010C949A01B4
:100060000C949A010C949A010C949A010C949A01A4
:100070000C949A010C949A010C949A010C949A0194
:100080000C949A010C949A010C949A010C949A0184
:100090000C949A010C949A010C949A010C949A0174
:1000A0000C949A010C949A010C949A010C949A0164
:1000B0000C949A010C949A010C949A010C949A0154
:1000C0000C949A010C949A010C949A010C949A0144
:1000D0000C949A010C949A010C949A010C949A0134
:1000E0000C949A010C949A010C949A010C949A0124
:1000F0000C949A010C949A010C949A010C949A0114
:100100000C949A010C949A010C949A010C949A0103
:100110000C949A010C949A010C949A010C949A01F3
:100120000C949A010C949A010C949A010C949A01E3
:100130000C949A010C949A010C949A010C949A01D3
:100140000C949A010C949A010C949A010C949A01C3
:100150000C949A010C949A010C949A010C949A01B3
:100160000C949A010C949A010C949A010C949A01A3
:100170000C949A010C949A010C949A010C949A0193
:100180000C949A010C949A010C949A010C949A0183
:100190000C949A010C949A010C949A010C949A0173
:1001A0000C949A010C949A010C949A010C949A0163
:1001B0000C949A010C949A010C949A010C949A0153
:1001C0000C949A010C949A010C94A4010C949C0137
:1001D0000C94CD020C94A0010C94A8010C949E01E7
:1001E0000C94E1020C9402020102040810204080E9
:1001F0001B36637C777BF26B6FC53001672BFED7B4
:10020000AB76CA82C97DFA5947F0ADD4A2AF9CA49F
:1002100072C0B7FD9326363FF7CC34A5E5F171D80F
:10022000311504C723C31896059A071280E2EB27FD
:10023000B27509832C1A1B6E5AA0523BD6B329E320
:100240002F8453D100ED20FCB15B6ACBBE394A4C00
:1002500058CFD0EFAAFB434D338545F9027F503C80
:100260009FA851A3408F929D38F5BCB6DA2110FFAC
:10027000F3D2CD0C13EC5F974417C4A77E3D645DA9
:10028000197360814FDC222A908846EEB814DE5E36
:100290000BDBE0323A0A4906245CC2D3AC6291958A
:1002A000E479E7C8376D8DD54EA96C56F4EA657AC6
:1002B000AE08BA78252E1CA6B4C6E8DD741F4BBD67
:1002C0008B8A703EB5664803F60E613557B986C114
:1002D0001D9EE1F8981169D98E949B1E87E9CE5531
:1002E00028DF8CA1890DBFE6426841992D0FB054DB
:1002F000BB1611241FBECFEFCDBFDFE3DEBF00E092
:100300000CBF10E2A0E0B0E2E8ECFEE000E00BBFC2
:1003100002C007900D92A032B107D9F722E2A0E205
:10032000B0E201C01D92A433B207E1F70E941307A7
:100330000C9462070C94000080E0089580E008951A
:100340000E94D90480E008950E94CD0480E00895C1
:10035000CF92DF92EF92FF920F931F93CF93DF9391
:10036000EC010E94D704E0918221F091832185E580
:100370008083E0918221F0918321F0808E016E01D3
:1003800080E1C80ED11CFE0180818F258193CE169D
:10039000DF06D1F7E2EFF1E080E09491AF2DA827DE
:1003A000B0E0AE57BF4D9F259C938F5F31968F3F36
:1003B000A1F7EE24E394E09205064091822150914A
:1003C000832162E870E2CE010E94D104E092060629
:1003D000CE010E94D804F80180818F2581938F017E
:1003E000EC15FD05C1F7AE0160E182E70E949802BD
:1003F00080E0DF91CF911F910F91FF90EF90DF9000
:10040000CF90089581E00895FC0180E096EA615064
:1004100070F02191822728E030E087FF03C0880F29
:10042000892701C0880F21503109B9F7F0CF08950D
:10043000DB01FA019F01241B350B28173907D4F57E
:100440002C9111963C91119760ED630F6A3010F476
:1004500060830FC06FEB630F663010F4375308C032
:100460006FE9630F663018F081E090E0089537552A
:10047000308330ED320F3A3018F42295207F14C0CB
:100480003FEB320F363020F430E02753310907C0FC
:100490003FE9320F363040F730E02755310964E04C
:1004A000220F331F6A95E1F73081232B2083319689
:1004B0001296C0CF80E090E00895A0918020B09186
:1004C0008120A031B105CCF4603C7105B0F496E018
:1004D0009A9FF0019B9FF00D1124E05EFF4D8083F9
:1004E000618372834383548325831196A093802074
:1004F000B093812080E090E0089581E090E008953D
:1005000020E00C945D0242E052E060E070E086E79B
:100510000E94800241EE52E060E070E087E70E94B6
:1005200080024DEC52E060E070E089E70C948002BC
:10053000CF92DF92EF92FF920F931F93CF93DF93AF
:10054000C62F8A010E9422047801D0E0C701801BD7
:10055000910B8C179D07B4F46701D701ED917D01D4
:10056000E295EF70F0E0E05FFF4D80810E94220491
:10057000D601EC91EF70F0E0E05FFF4D80810E94CA
:100580002204E4CF8AE0DF91CF911F910F91FF9079
:10059000EF90DF90CF900C942204CF93DF931F92C3
:1005A000CDB7DEB7809180208983AE014F5F5F4F6A
:1005B00061E082E70E94980280E00F90DF91CF9186
:1005C0000895CF93DF93CDB7DEB7E097CDBFDEBF01
:1005D0006091802070918120AB01552720E036E0AA
:1005E000822F90E084179507ECF4FC01EE0FFF1FBB
:1005F000E80FF91FA1E0B0E0AC0FBD1FEA0FFB1F31
:10060000389FD001399FB00D1124A05EBF4D8C9151
:10061000808311968C911197818315968C9182839A
:100620002F5FDECF862F880F680FAE014F5F5F4FC1
:1006300082E70E94980280E0E096CDBFDEBFDF91A6
:10064000CF910895AF92BF92CF92DF92EF92FF9237
:100650000F931F93CF93DF93CDB7DEB7C154D24032
:10066000CDBFDEBF0E941B044091802050918120AD
:1006700020E230E200E010E004171507ECF42A5FF6
:100680003F4FF90136979081891313C026E0209FD0
:10069000C001219F900D11249C01205E3F4D6901F6
:1006A000D90115968C91FE0131967F0180FF2AC0F9
:1006B00008C00F5F1F4FE0CF0417150709F476C07D
:1006C000E5CFCF57DE4F1882C158D1400E941B049E
:1006D00089830E941B048A83AE014F575E4FB70186
:1006E00081E090E00E941802892B09F05FC0CF578B
:1006F000DE4F8881C158D14090E0D60111968D938C
:100700009C931297670126E0209FC001219F900DC6
:100710001124FC01EF5DFF4D5F01F50180819181A6
:10072000880F991F96012E193F092817390750F491
:100730000E941B048A30D1F18D30C1F1D6018D9316
:100740006D01EBCF0E941B048A3011F08D3071F5E2
:1007500026E0209FC001219F900D11248C01005E96
:100760001F4DD8011196DC901197AE014F575E4F87
:10077000B7018D2D12969C910E941802892BB1F41D
:10078000D8011396ED91FC9114976D2DCE018F57E2
:100790009E4F1995CF5BDD4F8883C154D240AE0187
:1007A0004F5B5D4F61E08AE70E949802CF5BDD4FAF
:1007B000CDBFDEBFDF91CF911F910F91FF90EF90E2
:1007C000DF90CF90BF90AF900895E0E4F6E088E02E
:1007D000818384E08283E0EAF8E083E085838BE034
:1007E0008683178284818061848384818860848386
:1007F0000895CF93DF931F921F92CDB7DEB7698321
:100800007A8320E030E049815A812417350769F066
:100810004091A10847FF06C02091A008FC01208359
:1008200081E004C02F5F3F4FEECF80E00F900F902C
:10083000DF91CF9108958091A10887FFFCCF80912F
:10084000A00808959091A10895FFFCCF8093A0087F
:100850000895FC0160837183428314861386168693
:1008600015860895FC0162830895FC01958526850F
:100870009F5F937081E0921301C080E008951F9301
:10088000CF93DF93EC01162F0E943504882379F073
:100890009D85FE01E90FF11D17839F5F93709D8772
:1008A000E881F98193819C7F2A81922B9383DF9148
:1008B000CF911F910895FC012385948581E0291330
:1008C00001C080E00895FC018485DF01A80FB11DFF
:1008D00013968C9194859F5F937094870895FC0183
:1008E00083858F5F83702485A081B1819C9182175D
:1008F00049F02385DF01A20FB11D13969C938387D6
:1009000081E0089580E00895CF93DF93FC01968500
:100910008585A081B181981307C013968C91139798
:100920008C7F13968C930AC08685EF01C80FD11D6A
:100930008F818C9386858F5F83708687DF91CF91BF
:100940000895FC01848170FF02C0816001C08E7F28
:10095000848360830895FC01848180FF04C08081CA
:1009600090E091600895808190E008951092520087
:1009700010925500809150008860809350008091C3
:10098000510083FFFCCF88ED84BF83E0809340005B
:1009900088E0809350000895089564E871E20C9413
:1009A000ED069A01AB0164E871E20C94FC0608952F
:1009B00008950895CF93DF9300D01F92CDB7DEB78F
:1009C000DC018C91898314968C9114978A831896F4
:1009D0008C9118978B831C968C911C978C83862FF7
:1009E0008370E1E0F0E0EC0FFD1FE80FF11D808166
:1009F0008C9370E0FB013196E370FF2781E090E07B
:100A00008C0F9D1FE80FF91F808114968C9314970B
:100A1000FB013296E370FF2781E090E08C0F9D1F71
:100A2000E80FF91F808118968C931897FB01339675
:100A3000E370FF2781E090E08C0F9D1FE80FF91F06
:100A400080811C968C932496CDBFDEBFDF91CF9121
:100A500008952F923F924F925F926F927F928F9262
:100A60009F92AF92BF92CF92DF92EF92FF920F933D
:100A70001F93CF93DF93CDB7DEB76897CDBFDEBFAF
:100A80007C015B01342E2901DB018C8B9D8B9C0149
:100A9000205F3F4F2F8B388FFC018D9190818927EC
:100AA00081938F89988DE817F907B9F7350190E19F
:100AB000690E711CA1E0AB8B4E01B1E18B0E911C54
:100AC00028E0231508F098C08E010F5F1F4FF80132
:100AD000A701DA018D91AD019201280F311DD901D5
:100AE0008C918193E815F905A1F78E81B5E58B27E7
:100AF0008A8BAE014E5E5F4F61E082E70E949802F2
:100B000061E0CE0102960E94DA048E81E5E58E272F
:100B1000898BA40162E082E70E94980262E0CE0124
:100B200003960E94DA0463E0CE0104960E94DA0480
:100B30006701D8012C9011968C91119728262E8A46
:100B400012962C90129713968C9128264BE16E8961
:100B500082E00E940607BE892B26F8019081892732
:100B60008225D6018C936181828168274BE182E0E6
:100B70000E940607F801918189278225D6011196E6
:100B80008C936281838168274BE182E00E94060793
:100B9000F801928189278225D60112968C93638170
:100BA000808168274BE182E00E940607F80193816B
:100BB00089272826D60113962C920C5F1F4FB4E08C
:100BC000CB0ED11C0815190509F0B3CFF70180E051
:100BD00090E0D301A80FB91F30812C9123272193D6
:100BE000019680319105A9F7EB89EF5FEB8B3A9481
:100BF000F0E16F0E711C64CFF7018081D201A80F64
:100C0000B11D8C9181938F89988DE817F907A9F709
:100C100061E0C70101960E94DA0462E0C701029612
:100C20000E94DA0463E0C70103960E94DA04BB89DC
:100C3000A0E1BA9FC001112420E030E0FC01E20FE6
:100C4000F31FEA0DFB1DAC89BD895C9140814527EE
:100C50004D93AC8BBD8B2F5F3F4F2031310571F72A
:100C60006896CDBFDEBFDF91CF911F910F91FF90AE
:100C7000EF90DF90CF90BF90AF909F908F907F903C
:100C80006F905F904F903F902F9008958F929F921A
:100C9000AF92BF92CF92DF92EF92FF920F931F938A
:100CA000CF93DF93EA016B01F5E0D694C794FA95F0
:100CB000E1F7EC2C860111279801295F3F4FF22EB6
:100CC000FF0CFF0CAB01A3E056954795AA95E1F701
:100CD000BC01CE010E945907DC2C2C2D30E02F15D1
:100CE00008F06EC0622F70E0AB014150504C440FD1
:100CF000551F440F551F4C0F5D1FFA0180819181D4
:100D0000A281B3812D1509F1F8E0EF1241C0E22F65
:100D1000E770E43009F03CC0E82FF0E0EE50FE4F01
:100D2000E4918E2FE92FF0E0EE50FE4FE4919E2FDC
:100D3000EA2FF0E0EE50FE4FE491AE2FEB2FF0E003
:100D4000EE50FE4FE491BE2F23C0D22EDE0CC82EF3
:100D5000AB2EE92FF0E0EE50FE4FB490EA2FF0E01A
:100D6000EE50FE4FE4919E2FEA2DF0E0EE50FE4F44
:100D7000E491AE2FEC2DF0E0EE50FE4FE491BE2F4B
:100D8000E32FF0E0E851FE4FE4918B2D8E273F5F7B
:100D9000FB01E01BF10BEE0FFF1FEE0FFF1FEC0F2F
:100DA000FD1F80809180A280B38088259925AA2587
:100DB000BB25FA0184839583A683B7832F5F8FCFEA
:100DC000DF91CF911F910F91FF90EF90DF90CF9027
:100DD000BF90AF909F908F900895AB0160E870E056
:100DE0000C944606AB0160EC70E00C944606AB0137
:100DF00060E071E00C9446060F931F9389019A01FD
:100E00004AE00E9429051F910F910895782F8827A5
:100E1000769531F008F48627660F08F46427F8CF3A
:100E200008F486270895CF93DF93CDB7DEB7609798
:100E3000CDBFDEBF80E1E0E0F0E2DE01119601907F
:100E40000D928A95E1F70E94B6040E94E50381E0C5
:100E5000809301060E94CC04CE0101960E94CD042D
:100E60000E94830244EA51E060E170E08BE60E9458
:100E7000800248EA51E060E170E080E70E94800271
:100E80004CE951E060E070E088E70E94800221E0D8
:100E900040EA51E062E170E08DE60E945D024EE9B9
:100EA00051E062E070E083E70E9480020E9422032A
:100EB000FDCFFB01DC0102C001900D92415050407A
:080EC000D8F70895F894FFCF64
:100EC8002B7E151628AED2A6ABF7158809CF4F3C56
:100ED8003031323334353637383941424344454668
:00000001FF
