:100000000C9479010C949A010C949A010C949A0125
:100010000C949A010C949A010C949A010C949A01F4
:100020000C949A010C949A010C949A010C949A01E4
:100030000C949A010C949A010C949A010C949A01D4
:100040000C949A010C949A010C949A010C949A01C4
:100050000C949A010C949A010C949A010C949A01B4
:100060000C949A010C949A010C949A010C949A01A4
:100070000C949A010C949A010C949A010C949A0194
:100080000C949A010C949A010C949A010C949A0184
:100090000C949A010C949A010C949A010C949A0174
:1000A0000C949A010C949A010C949A010C949A0164
:1000B0000C949A010C949A010C949A010C949A0154
:1000C0000C949A010C949A010C949A010C949A0144
:1000D0000C949A010C949A010C949A010C949A0134
:1000E0000C949A010C949A010C949A010C949A0124
:1000F0000C949A010C949A010C949A010C949A0114
:100100000C949A010C949A010C949A010C949A0103
:100110000C949A010C949A010C949A010C949A01F3
:100120000C949A010C949A010C949A010C949A01E3
:100130000C949A010C949A010C949A010C949A01D3
:100140000C949A010C949A010C949A010C949A01C3
:100150000C949A010C949A010C949A010C949A01B3
:100160000C949A010C949A010C949A010C949A01A3
:100170000C949A010C949A010C949A010C949A0193
:100180000C949A010C949A010C949A010C949A0183
:100190000C949A010C949A010C949A010C949A0173
:1001A0000C949A010C949A010C949A010C949A0163
:1001B0000C949A010C949A010C949A010C949A0153
:1001C0000C949A010C949A010C94A4010C949C0137
:1001D0000C94D2020C94A0010C94A8010C949E01E2
:1001E0000C94E6020C9407020102040810204080DF
:1001F0001B36637C777BF26B6FC53001672BFED7B4
:10020000AB76CA82C97DFA5947F0ADD4A2AF9CA49F
:1002100072C0B7FD9326363FF7CC34A5E5F171D80F
:10022000311504C723C31896059A071280E2EB27FD
:10023000B27509832C1A1B6E5AA0523BD6B329E320
:100240002F8453D100ED20FCB15B6ACBBE394A4C00
:1002500058CFD0EFAAFB434D338545F9027F503C80
:100260009FA851A3408F929D38F5BCB6DA2110FFAC
:10027000F3D2CD0C13EC5F974417C4A77E3D645DA9
:10028000197360814FDC222A908846EEB814DE5E36
:100290000BDBE0323A0A4906245CC2D3AC6291958A
:1002A000E479E7C8376D8DD54EA96C56F4EA657AC6
:1002B000AE08BA78252E1CA6B4C6E8DD741F4BBD67
:1002C0008B8A703EB5664803F60E613557B986C114
:1002D0001D9EE1F8981169D98E949B1E87E9CE5531
:1002E00028DF8CA1890DBFE6426841992D0FB054DB
:1002F000BB1611241FBECFEFCDBFDFE3DEBF00E092
:100300000CBF10E2A0E0B0E2EEEAFEE000E00BBFBE
:1003100002C007900D92A032B107D9F722E2A0E205
:10032000B0E201C01D92A433B207E1F70E940607B4
:100330000C9455070C94000080E0089580E0089527
:100340000E94DE0480E008950E94D20480E00895B7
:10035000CF92DF92EF92FF920F931F93CF93DF9391
:10036000EC010E94DC04E0918221F091832185E57B
:100370008083E0918221F0918321D0808E017E01E3
:1003800040E1E40EF11CFE0180818D258193EE1683
:10039000FF06D1F780E090E02D2D30E0FC01EE501B
:1003A000FE4FE491D901A827B927AE57BF4DED25DF
:1003B000EC9301968115E1E09E0781F7CC24C3946C
:1003C000C0920506409182215091832162E870E23B
:1003D000CE010E94D604C0920606CE010E94DD0422
:1003E000F80180818D2581938F01EE15FF05C1F7FE
:1003F000AE0160E182E70E949D0280E0DF91CF9133
:100400001F910F91FF90EF90DF90CF90089581E0C2
:100410000895FC0180E096EA615070F021918227F6
:1004200028E030E087FF03C0880F892701C0880FCC
:1004300021503109B9F7F0CF0895DB01FA019F018E
:10044000241B350B28173907D4F52C9111963C91B4
:10045000119760ED630F6A3010F460830FC06FEB8B
:10046000630F663010F4375308C06FE9630F6630CE
:1004700018F081E090E008953755308330ED320F69
:100480003A3018F42295207F14C03FEB320F3630FB
:1004900020F430E02753310907C03FE9320F3630EE
:1004A00040F730E02755310964E0220F331F6A9589
:1004B000E1F73081232B208331961296C0CF80E064
:1004C00090E00895A0918020B0918120A031B105E5
:1004D000CCF4603C7105B0F496E09A9FF0019B9FCC
:1004E000F00D1124E05EFF4D8083618372834383AE
:1004F000548325831196A0938020B093812080E0BF
:1005000090E0089581E090E0089520E00C9462026C
:1005100047E052E060E070E086E70E94850246EE28
:1005200052E060E070E087E70E94850242ED52E011
:1005300060E070E089E70C948502CF92DF92EF9241
:10054000FF920F931F93CF93DF93C62F8A010E94D0
:1005500027047801D0E0C701801B910B8C179D0701
:10056000B4F46701D701ED917D01E295EF70F0E001
:10057000E05FFF4D80810E942704D601EC91EF706F
:10058000F0E0E05FFF4D80810E942704E4CF8AE025
:10059000DF91CF911F910F91FF90EF90DF90CF905F
:1005A0000C942704CF93DF931F92CDB7DEB78091D1
:1005B00080208983AE014F5F5F4F61E082E70E9438
:1005C0009D0280E00F90DF91CF910895CF93DF934C
:1005D000CDB7DEB7E097CDBFDEBF609180207091D0
:1005E0008120AB01552720E036E0822F90E0841770
:1005F0009507ECF4FC01EE0FFF1FE80FF91FA1E0D7
:10060000B0E0AC0FBD1FEA0FFB1F389FD001399F30
:10061000B00D1124A05EBF4D8C91808311968C91FA
:100620001197818315968C9182832F5FDECF862F61
:10063000880F680FAE014F5F5F4F82E70E949D02F7
:1006400080E0E096CDBFDEBFDF91CF910895AF92FD
:10065000BF92CF92DF92EF92FF920F931F93CF93AF
:10066000DF93CDB7DEB7C154D240CDBFDEBF0E940D
:100670002004409180205091812020E230E200E06F
:1006800010E004171507ECF42A5F3F4FF901369785
:100690009081891313C026E0209FC001219F900DF7
:1006A00011249C01205E3F4D6901D90115968C9162
:1006B000FE0131967F0180FF2AC008C00F5F1F4FE7
:1006C000E0CF0417150709F476C0E5CFCF57DE4F0A
:1006D0001882C158D1400E94200489830E942004BE
:1006E0008A83AE014F575E4FB70181E090E00E94D0
:1006F0001D02892B09F05FC0CF57DE4F8881C1589A
:10070000D14090E0D60111968D939C93129767018A
:1007100026E0209FC001219F900D1124FC01EF5D78
:10072000FF4D5F01F50180819181880F991F96012E
:100730002E193F092817390750F40E9420048A30E7
:10074000D1F18D30C1F1D6018D936D01EBCF0E94B7
:1007500020048A3011F08D3071F526E0209FC00111
:10076000219F900D11248C01005E1F4DD801119620
:10077000DC901197AE014F575E4FB7018D2D129649
:100780009C910E941D02892BB1F4D8011396ED9122
:10079000FC9114976D2DCE018F579E4F1995CF5B0D
:1007A000DD4F8883C154D240AE014F5B5D4F61E0A5
:1007B0008AE70E949D02CF5BDD4FCDBFDEBFDF9198
:1007C000CF911F910F91FF90EF90DF90CF90BF904E
:1007D000AF900895E0E4F6E088E0818384E08283CE
:1007E000E0EAF8E083E085838BE0868317828481EA
:1007F000806184838481886084830895CF93DF93AC
:100800001F921F92CDB7DEB769837A8320E030E074
:1008100049815A812417350769F04091A10847FFA3
:1008200006C02091A008FC01208381E004C02F5F56
:100830003F4FEECF80E00F900F90DF91CF91089562
:100840008091A10887FFFCCF8091A0080895909126
:10085000A10895FFFCCF8093A0080895FC01608358
:100860007183428314861386168615860895FC01CB
:1008700062830895FC01958526859F5F937081E0D2
:10088000921301C080E008951F93CF93DF93EC0192
:10089000162F0E943A04882379F09D85FE01E90F06
:1008A000F11D17839F5F93709D87E881F981938184
:1008B0009C7F2A81922B9383DF91CF911F91089582
:1008C000FC012385948581E0291301C080E008950F
:1008D000FC018485DF01A80FB11D13968C919485CE
:1008E0009F5F937094870895FC0183858F5F837069
:1008F0002485A081B1819C91821749F02385DF0175
:10090000A20FB11D13969C93838781E0089580E028
:100910000895CF93DF93FC0196858585A081B181F1
:10092000981307C013968C9113978C7F13968C9312
:100930000AC08685EF01C80FD11D8F818C938685F3
:100940008F5F83708687DF91CF910895FC0184814A
:1009500070FF02C0816001C08E7F84836083089530
:10096000FC01848180FF04C0808190E09160089543
:10097000808190E00895109252001092550080916D
:1009800050008860809350008091510083FFFCCF1D
:1009900088ED84BF83E08093400088E0809350001E
:1009A0000895089564E871E20C94E0069A01AB01A1
:1009B00064E871E20C94EF06089508950895CF93CA
:1009C000DF9300D01F92CDB7DEB7DC018C91898315
:1009D00014968C9114978A8318968C9118978B8310
:1009E0001C968C911C978C83862F8370E1E0F0E03D
:1009F000EC0FFD1FE80FF11D80818C9370E0FB016F
:100A00003196E370FF2781E090E08C0F9D1FE80F87
:100A1000F91F808114968C931497FB013296E37032
:100A2000FF2781E090E08C0F9D1FE80FF91F808168
:100A300018968C931897FB013396E370FF2781E09B
:100A400090E08C0F9D1FE80FF91F80811C968C93FE
:100A50002496CDBFDEBFDF91CF9108952F923F92B4
:100A60004F925F926F927F928F929F92AF92BF92BE
:100A7000CF92DF92EF92FF920F931F93CF93DF936A
:100A8000CDB7DEB76597CDBFDEBF7C015B01342EED
:100A90002901DB018A8B9B8B9C01205F3F4F2C8BB4
:100AA0003D8BFC018D919081892781938C899D8953
:100AB000E817F907B9F7450190E1890E911CA1E00B
:100AC000A98B3E01B1E16B0E711C81E0831508F02A
:100AD00086C08E010F5F1F4FF801A701DA018D91CB
:100AE000AD019201280F311DD9018C918193E6153A
:100AF000F705A1F761E0CE0102960E94DF0462E0F3
:100B0000CE0103960E94DF0463E0CE0104960E94AA
:100B1000DF046701F8016081818168272280838179
:100B2000282626264BE182E00E94F906D8019C91F6
:100B300089278225F601808311966C911197129670
:100B40008C9168274BE182E00E94F906D80111964A
:100B50009C91119789278225F601818312966C91C9
:100B6000129713968C9168274BE182E00E94F90658
:100B7000D80112969C91129789278225F6018283CB
:100B800013966C9113978C9168274BE182E00E9439
:100B9000F906D80113969C9189272826F60123820D
:100BA0000C5F1F4FF4E0CF0ED11C0615170509F09E
:100BB000B1CFF70180E090E0D401A80FB91F3081D8
:100BC0002C9123272193019680319105A9F729893A
:100BD0002F5F298B3A9430E1830E911C76CFF70179
:100BE0008081D201A80FB11D8C918193AC89BD8900
:100BF000EA17FB07A9F761E0C70101960E94DF042D
:100C000062E0C70102960E94DF0463E0C701039619
:100C10000E94DF04E989B0E1EB9FC001112420E0CC
:100C200030E0FC01E20FF31FEA0DFB1DAA89BB892E
:100C30005C91408145274D93AA8BBB8B2F5F3F4F23
:100C40002031310571F76596CDBFDEBFDF91CF91C1
:100C50001F910F91FF90EF90DF90CF90BF90AF90DA
:100C60009F908F907F906F905F904F903F902F90CC
:100C700008958F929F92AF92BF92CF92DF92EF92A0
:100C8000FF920F931F93CF93DF93EA016B01F5E07F
:100C9000D694C794FA95E1F7EC2C860111279801B8
:100CA000295F3F4FF22EFF0CFF0CAB01A3E05695DE
:100CB0004795AA95E1F7BC01CE010E944C07DC2CB8
:100CC0002C2D30E02F1508F06EC0622F70E0AB01C4
:100CD0004150504C440F551F440F551F4C0F5D1F82
:100CE000FA0180819181A281B3812D1509F1F8E08B
:100CF000EF1241C0E22FE770E43009F03CC0E82F6A
:100D0000F0E0EE50FE4FE4918E2FE92FF0E0EE5030
:100D1000FE4FE4919E2FEA2FF0E0EE50FE4FE4915B
:100D2000AE2FEB2FF0E0EE50FE4FE491BE2F23C02C
:100D3000D22EDE0CC82EAB2EE92FF0E0EE50FE4F87
:100D4000B490EA2FF0E0EE50FE4FE4919E2FEA2D92
:100D5000F0E0EE50FE4FE491AE2FEC2DF0E0EE50BF
:100D6000FE4FE491BE2FE32FF0E0E851FE4FE491F7
:100D70008B2D8E273F5FFB01E01BF10BEE0FFF1F5A
:100D8000EE0FFF1FEC0FFD1F80809180A280B380CB
:100D900088259925AA25BB25FA0184839583A683F6
:100DA000B7832F5F8FCFDF91CF911F910F91FF906E
:100DB000EF90DF90CF90BF90AF909F908F9008956D
:100DC000AB0160E870E00C943906AB0160EC70E0B8
:100DD0000C943906AB0160E071E00C9439060F9376
:100DE0001F9389019A014AE00E942E051F910F91DD
:100DF0000895782F8827769531F008F48627660FB6
:100E000008F46427F8CF08F486270895CF93DF937A
:100E1000CDB7DEB76097CDBFDEBF80E1E0E0F0E2A6
:100E2000DE01119601900D928A95E1F70E94BB04B4
:100E30000E94EA0381E0809301060E94D104CE0162
:100E400001960E94D2040E94880244EA51E060E1C7
:100E500070E08BE60E94850248EA51E060E170E0B4
:100E600080E70E9485024CE951E060E070E088E78D
:100E70000E94850221E040EA51E062E170E08DE6E7
:100E80000E9462024EE951E062E070E083E70E9456
:100E900085020E942703FDCFFB01DC0102C0019007
:0E0EA0000D9241505040D8F70895F894FFCFBE
:100EAE002B7E151628AED2A6ABF7158809CF4F3C70
:100EBE003031323334353637383941424344454682
:00000001FF
